:020000040000FA
:0600000037EF12F01200C0
:020006001200E6
:080008009EA402D08DEF0CF064
:020010001200DC
:0E0012000200B0240000DA0500000200000029
:0C002000A3240000C30500000D00000038
:04002C00D9CFE6FF43
:10003000DACFE6FFE1CFD9FFE2CFDAFFE652E652B0
:10004000E652E652E652F00EDBCFE6FFF10EDBCFD2
:10005000E6FFF70EDBCFE6FFF80EDBCFE6FF70EC36
:1000600008F0E552E552E552E552DE52F3CFDEFFED
:10007000F4CFDDFFDD52D950010FE96E000EDA201A
:10008000EA6EEE50ED1001E121D1010EDBCFE9FF68
:10009000020EDBCFEAFF170EE926000EEA22030E5E
:1000A000EECFDBFF040EEDCFDBFFF70EDBCF0DF065
:1000B000F80EDBCF0EF00D06000E0E5A010EDBCF50
:1000C000E9FF020EDBCFEAFF170EE926000EEA2257
:1000D0000D50EE240B6E0E50EE200C6E010EDBCF99
:1000E000E9FF020EDBCFEAFF1D0EE926000EEA2231
:1000F0000BC0EEFF0CC0EDFFF70EDBCFE6FFF80EF6
:10010000DBCFE6FFEE0EDBCFE6FFEF0EDBCFE6FF49
:10011000F40EDBCFE6FFF90EDBCFE6FFFA0EDBCF06
:10012000E6FF010EDBCFE6FF020EDBCFE6FF5FEC62
:1001300007F00B6E090EE15C02E2E16AE552E16E46
:100140000B50F50EDBCFE6FFF60EDBCFE6FFFB0E26
:10015000DBCFE6FFFC0EDBCFE6FFFD0EDBCFE6FFDD
:10016000030EDBCFE6FF040EDBCFE6FFFBEC08F06F
:100170000D6E070EE15C02E2E16AE552E16E0D50A0
:10018000F3CF0BF0F4CF0CF0010EDBCFE9FF020E42
:10019000DBCFEAFF0BC0EEFF0CC0EDFFF250E66EC6
:1001A000F29E0501C52B0501C50509E1010EDBCF56
:1001B000C3F5020EDBCFC4F526EC08F015D005011F
:1001C000CA5112E1C3C5E9FFC4C5EAFF160EEB50E0
:1001D0000B6EF40EDB50D8800B5406E3010EDBCF20
:1001E000C3F5020EDBCFC4F5010EDBCFE9FF020E33
:1001F000DBCFEAFF160EE926000EEA22EFCF0BF066
:100200000501C851D8800B540CE2010EDBCFE9FF89
:10021000020EDBCFEAFF160EE926000EEA22EFCF30
:10022000C8F50501CF2B010EDBCFE9FF020EDBCFB6
:10023000EAFF160EE926000EEA22EFCF0BF00501C9
:10024000C951D8800B540CE2010EDBCFE9FF020E3E
:10025000DBCFEAFF160EE926000EEA22EFCFC9F542
:10026000010EDBCFE9FF020EDBCFEAFF020EE9262B
:10027000000EEA22E9CF0BF0EACF0CF00BC0E6FF4C
:100280000CC0E6FF010EDBCFE9FF020EDBCFEAFF79
:10029000160EE926000EEA22EF50090DF3CF0DF0FD
:1002A000F4CF0EF0800E0D26050E0E220DC0E6FFD7
:1002B0000EC0E6FF69EC0EF0E552E552E552E5525C
:1002C000010EDF6EE552E7BEF28E01D0DF68DF047B
:1002D00025E1D950F20FE96EFF0EDA20EA6EEE50FA
:1002E000ED100CE0F20EDBCFE9FFF30EDBCFEAFFFF
:1002F000010EDBCFEEFF020EDBCFEDFF0501CA5191
:100300000DE0C3C5E9FFC4C5EAFF160EEB500B6E46
:10031000F40EDB500B5C02E2B3EC0BF0DF5000D0CC
:100320000B6E050EE15C02E2E16AE552E16E0B50F4
:10033000E552E5CFDAFFE7CFD9FF1200D9CFE6FFCC
:10034000DACFE6FFE1CFD9FFE2CFDAFFE652E6529D
:10035000E652020EDB6AD950FC0FE96EFF0EDA207E
:10036000EA6E000ED880EE54000EED5475E2C5D84A
:10037000FC0EDB500501C62500010B6EFD0EDB50A7
:100380000501C72100010C6E0BC0DEFF0CC0DDFFB4
:10039000C3C5E9FFC4C5EAFF020EE926000EEA2242
:1003A000E9CF0BF0EACF0CF00BC0E6FF0CC0E6FF84
:1003B000E3EC0FF0E552E552C3C5E9FFC4C5EAFF1F
:1003C000020EE926000EEA22DECFEEFFDDCFEDFFC2
:1003D000DECF0BF0DDCF0CF00501C6510B5CC75131
:1003E0000C581BE2C3C5E9FFC4C5EAFF020EE926AB
:1003F000000EEA22E9CF0BF0EACF0CF00BC0E6FFCB
:100400000CC0E6FFB8C5E6FFB9C5E6FF01EC0FF08A
:10041000E552E552E552E5521AD0C3C5E9FFC4C51D
:10042000EAFF020EE926000EEA22E9CF0BF0EACF3E
:100430000CF00BC0E6FF0CC0E6FFB6C5E6FFB7C583
:10044000E6FF01EC0FF0E552E552E552E55258D8CF
:10045000E76E020EE7CFDBFF020EDB5002E1B3ECEA
:100460000BF0E552E552E552E552E5CFDAFFE7CF72
:10047000D9FF1200D9CFE6FFDACFE6FFE1CFD9FFEF
:10048000E2CFDAFFE652000EE66EE66AE66EE66A54
:10049000E66EE66AE66AE66EE66A690EE66EE66AA9
:1004A0009E0EE66E240EE66E920EE66E0E0EE66E62
:1004B000000EE66EBBDD0B6E100EE15C02E2E16A3F
:1004C000E552E16E0B50DF6EDF040BE1F29E050199
:1004D000010ECA6FC66BC76B41EC0BF0000901E05F
:1004E00000D0E552E552E5CFDAFFE7CFD9FF1200A1
:1004F000F29E0501CA6BB2EF0BF00501CB2B120087
:10050000D9CFE6FFDACFE6FFE1CFD9FFE2CFDAFFBE
:10051000E652E652E652E652020EDB6AF250E66E10
:10052000F29E0501CB070501CB5101E0C6D00501C4
:10053000C551000801E3C1D0030EDB6A0501BA51C1
:100540000DE0BFC5E9FFC0C5EAFF060EE926000EB3
:10055000EA22EECF0BF0EFCF0CF002D00B6A0C6A60
:100560000BC0DEFF0CC0DDFF0B500C1001E185D08D
:10057000DECFE9FFDDCFEAFF0C0EE926000EEA220E
:10058000E9CF0BF0EACF0CF00BC0E6FF0CC0E6FFA2
:10059000E3EC0FF0E552E552DECFE9FFDDCFEAFFF5
:1005A000020EE926000EEA22E9CF0BF0EACF0CF0AA
:1005B0000BC0E6FF0CC0E6FFE3EC0FF0E552E5529E
:1005C000DECFE9FFDDCFEAFF160EE926000EEA22B4
:1005D000EFCF0BF00501C951D8800B540AE2DECFF2
:1005E000E9FFDDCFEAFF160EE926000EEA22EFCF83
:1005F000C9F5DECFE9FFDDCFEAFF020EE926000EE6
:10060000EA22E9CF0BF0EACF0CF00BC0E6FF0CC0FA
:10061000E6FFDECFE9FFDDCFEAFF160EE926000E8A
:10062000EA22EF50090DF3CF0DF0F4CF0EF0800E5B
:100630000D26050E0E220DC0E6FF0EC0E6FF69EC8A
:100640000EF0E552E552E552E552DECFE9FFDDCF8F
:10065000EAFF160EE926000EEA22EFCF0BF0C3C523
:10066000E9FFC4C5EAFF160EEB500B5C05E3010E73
:10067000F36E030EF3CFDBFF61D70501CC51000809
:100680000DE20501CC51000804E254D80501CC0765
:10069000F8D7010EF36E030EF3CFDBFF030EDB047E
:1006A00003E00501CD0509E1010EF36E020EF3CF63
:1006B000DBFF0501CD6BB3EC0BF0E552E7BEF28E2C
:1006C000020EDB5000D00B6E040EE15C02E2E16A28
:1006D000E552E16E0B50E552E5CFDAFFE7CFD9FFE7
:1006E0001200D9CFE6FFDACFE6FFE1CFD9FFE2CFA4
:1006F000DAFFE652E652F250E66EF29EC6C5DEFF23
:10070000C7C5DDFFE552E7BEF28EDECF0BF0DDCFD1
:100710000CF00BC0F3FF0CC0F4FF00D0E552E55223
:10072000E552E5CFDAFFE7CFD9FF12000501C55149
:1007300000D01200D9CFE6FFDACFE6FFE1CFD9FF34
:10074000E2CFDAFFE652E652E652E6520501CB511D
:1007500001E0E0D0C62B000EC723C651C7110DE142
:10076000B6C5DEFFB7C5DDFFB8C5B6F5B9C5B7F587
:10077000DECFB8F5DDCFB9F5CE2BB6C5E9FFB7C5ED
:10078000EAFFEF50000919E0B6C5E9FFB7C5EAFF77
:10079000030EE926000EEA22020EE926000EEA22E6
:1007A000EE50EFCFEAFFE96E060EE926000EEA22D0
:1007B000EECF0BF0EFCF0CF002D00B6A0C6A020EFA
:1007C0000BC0DBFF030E0CC0DBFF0B500C1001E174
:1007D000A0D0020EDBCFE9FF030EDBCFEAFF020E53
:1007E000E926000EEA22EECF0BF0EFCF0CF0050168
:1007F0000B50C65D0C50C75901E28BD0020EDBCF07
:10080000E9FF030EDBCFEAFF020EE926000EEA2223
:10081000E9CF0BF0EACF0CF00BC0E6FF0CC0E6FF0F
:10082000E3EC0FF0E552E552020EDBCFE9FF030ED9
:10083000DBCFEAFF0C0EE926000EEA22080EE926BD
:10084000000EEA22EE50ED1016E0020EDBCFE9FFBB
:10085000030EDBCFEAFF0C0EE926000EEA22E9CFF9
:100860000BF0EACF0CF00BC0E6FF0CC0E6FFE3ECA8
:100870000FF0E552E552020EDBCFE9FF030EDBCFAE
:10088000EAFF160EE926000EEA22EFCF0BF0050173
:10089000C951D8800B540CE2020EDBCFE9FF030EE6
:1008A000DBCFEAFF160EE926000EEA22EFCFC9F5EC
:1008B000020EDBCFE9FF030EDBCFEAFF020EE926D3
:1008C000000EEA22E9CF0BF0EACF0CF00BC0E6FFF6
:1008D0000CC0E6FF020EDBCFE9FF030EDBCFEAFF21
:1008E000160EE926000EEA22EF50090DF3CF0DF0A7
:1008F000F4CF0EF0800E0D26050E0E220DC0E6FF81
:100900000EC0E6FF69EC0EF0E552E552E552E55205
:1009100034D701D0CC2B040EE15C02E2E16AE5524F
:10092000E16EE552E5CFDAFFE7CFD9FF1200D9CF6C
:10093000E6FFDACFE6FFE1CFD9FFE2CFDAFFE652FA
:10094000E6520501CB5103E0010ECD6F7CD0C951B9
:10095000090DF3CFE9FFF4CFEAFF800EE926050E7B
:10096000EA22EF5002E1C907F2D7C951090DF3CFCE
:100970000BF0F4CF0CF0800E0B26050E0C220BC0F2
:10098000DEFF0CC0DDFFDECFE9FFDDCFEAFFEE5278
:10099000EE50EFCFEAFFE96E020EE926000EEA22E2
:1009A000EECF0BF0EFCF0CF0DECFE9FFDDCFEAFFAB
:1009B000EE520BC0EEFF0CC0EDFFDECFE9FFDDCF46
:1009C000EAFFEE52EECF0BF0EFCF0CF0DECFE9FFF7
:1009D000DDCFEAFF030EE926000EEA22E9CF0DF093
:1009E000EACF0EF00D500B1802E10E500C181AE170
:1009F000DECFE9FFDDCFEAFFEE52EE50EFCFEAFFA8
:100A0000E96E020EE926000EEA22EECF0BF0EFCFE0
:100A10000CF0DECFE9FFDDCFEAFFEE520BC0EEFFB8
:100A20000CC0EDFFDECFE9FFDDCFEAFFEE52EE5066
:100A3000EFCFEAFFE96E060EE926000EEA22EECFBE
:100A4000C3F5EDCFC4F5E552E552E552E5CFDAFF47
:100A5000E7CFD9FF1200D9CFE6FFDACFE6FFE1CF2B
:100A6000D9FFE2CFDAFFE652E652C3C5E9FFC4C5BB
:100A7000EAFF0C0EE926000EEA22E9CF0BF0EACFDE
:100A80000CF00BC0E6FF0CC0E6FFFC0EDBCFE6FF70
:100A9000FD0EDBCFE6FF01EC0FF0E552E552E5522B
:100AA000E552C3C5E9FFC4C5EAFF020EE926000E00
:100AB000EA22E9CF0BF0EACF0CF00BC0E6FF0CC046
:100AC000E6FFE3EC0FF0E552E552FA0EDB500501CC
:100AD000C62500010B6EFB0EDB500501C72100018E
:100AE0000C6E0BC0DEFF0CC0DDFFC3C5E9FFC4C543
:100AF000EAFF020EE926000EEA22DECFEEFFDDCF8E
:100B0000EDFFDECF0BF0DDCF0CF00501C6510B5C25
:100B1000C7510C581BE2C3C5E9FFC4C5EAFF020E6A
:100B2000E926000EEA22E9CF0BF0EACF0CF00BC069
:100B3000E6FF0CC0E6FFB8C5E6FFB9C5E6FF01EC6D
:100B40000FF0E552E552E552E5521AD0C3C5E9FF70
:100B5000C4C5EAFF020EE926000EEA22E9CF0BF037
:100B6000EACF0CF00BC0E6FF0CC0E6FFB6C5E6FF0F
:100B7000B7C5E6FF01EC0FF0E552E552E552E5524C
:100B8000E552E552E552E5CFDAFFE7CFD9FF120093
:100B9000D9CFE6FFDACFE6FFE1CFD9FFE2CFDAFF28
:100BA000E652E652E652FC0EDBCFE9FFFD0EDBCF4C
:100BB000EAFFEF501BE0FC0EDBCFE9FFFD0EDBCFC1
:100BC000EAFF030EE926000EEA22020EE926000ED5
:100BD000EA22EE50EFCFEAFFE96E060EE926000E9C
:100BE000EA22EECF0BF0EFCF0CF002D00B6A0C6ACA
:100BF0000BC0DEFF0CC0DDFFDECFE9FFDDCFEAFF7B
:100C00000C0EE926000EEA22E9CF0BF0EACF0CF039
:100C10000BC0E6FF0CC0E6FFE3EC0FF0E552E55237
:100C20000501CB515AE1DECFE9FFDDCFEAFF020E2D
:100C3000E926000EEA22E9CF0BF0EACF0CF00BC058
:100C4000E6FF0CC0E6FFE3EC0FF0E552E552DECF25
:100C5000E9FFDDCFEAFF160EE926000EEA22EFCF0C
:100C60000BF00501C951D8800B540AE2DECFE9FF31
:100C7000DDCFEAFF160EE926000EEA22EFCFC9F516
:100C8000DECFE9FFDDCFEAFF020EE926000EEA2201
:100C9000E9CF0BF0EACF0CF00BC0E6FF0CC0E6FF8B
:100CA000DECFE9FFDDCFEAFF160EE926000EEA22CD
:100CB000EF50090DF3CF0DF0F4CF0EF0800E0D269E
:100CC000050E0E220DC0E6FF0EC0E6FF69EC0EF029
:100CD000E552E552E552E5521AD0DECFE9FFDDCF0D
:100CE000EAFF0C0EE926000EEA22E9CF0BF0EACF6C
:100CF0000CF00BC0E6FF0CC0E6FFBA0EE66E050E68
:100D0000E66E69EC0EF0E552E552E552E552DECFB3
:100D1000E9FFDDCFEAFF160EE926000EEA22EFCF4B
:100D20000BF0C3C5E9FFC4C5EAFF160EEB500B5C20
:100D300006E3010EF36E020EF3CFDBFF02D0020ECC
:100D4000DB6ADB5000D0E552E552E552E552E5CFD3
:100D5000DAFFE7CFD9FF1200D9CFE6FFDACFE6FFFF
:100D6000E1CFD9FFE2CFDAFFFC0EDBCFE9FFFD0ECA
:100D7000DBCFEAFFCEC5EFFFFC0EDBCFE9FFFD0EB8
:100D8000DBCFEAFFEE52C6C5EEFFC7C5EDFFE55269
:100D9000E5CFDAFFE7CFD9FF1200D9CFE6FFDACFF0
:100DA000E6FFE1CFD9FFE2CFDAFFE652F250E66E7E
:100DB000F29EFC0EDBCFE9FFFD0EDBCFEAFFEF502A
:100DC0000501CE5D14E0FC0EDBCFE9FFFD0EDBCFAD
:100DD000EAFFEE52EECF0BF0EFCF0CF005010B5017
:100DE000C65D0C50C75903E3010EDF6E42D0FC0E06
:100DF000DBCFE9FFFD0EDBCFEAFFEE520501EE503F
:100E0000C65D0B6EEE50C7590C6EFA0EDBCFE9FFD4
:100E1000FB0EDBCFEAFFEECF0DF0EFCF0EF00D5063
:100E20000B5C0E500C5823E2FC0EDBCFE9FFFD0EED
:100E3000DBCFEAFFEE520501EE50C65D0B6EEE50C1
:100E4000C7590C6EFA0EDBCFE9FFFB0EDBCFEAFFD2
:100E50000B50EE5E0C50ED5AFC0EDBCFE6FFFD0EA4
:100E6000DBCFE6FF79DFE552E552DF6A02D0010E03
:100E7000DF6EE552E7BEF28EDF5000D0E552E5525C
:100E8000E5CFDAFFE7CFD9FF12000501010ECD6FE4
:100E90001200D9CFE6FFDACFE6FFE1CFD9FFE2CFEC
:100EA000DAFF1DD905018051010802E2B3EC0BF015
:100EB000F8D7E552E5CFDAFFE7CFD9FF1200D9CF57
:100EC000E6FFDACFE6FFE1CFD9FFE2CFDAFF040E8B
:100ED000E66EE66AFA0EDBCFE6FFFB0EDBCFE6FF3F
:100EE000FC0EDBCFE9FFFD0EDBCFEAFF190EE92692
:100EF000000EEA22E9CF0BF0EACF0CF00BC0E6FFC0
:100F00000CC0E6FFE8EC11F00D6E060EE15C02E2AB
:100F1000E16AE552E16E0D50FC0EDBCFE9FFFD0EFC
:100F2000DBCFEAFF190EE926000EEA22030EE926BE
:100F3000000EEA22EF6A040EF36EF90EDBCFF4FF27
:100F4000F350F45C05E3030EF36EF90EF3CFDBFF11
:100F5000FC0EDBCFE9FFFD0EDBCFEAFF160EE92624
:100F6000000EEA22F90EDBCFEFFFFC0EDBCFE9FF2C
:100F7000FD0EDBCFEAFF020EE926000EEA22E9CFE2
:100F80000BF0EACF0CF00BC0E6FF0CC0E6FF51EC13
:100F90000EF0E552E552FC0EDBCFE9FFFD0EDBCF94
:100FA000EAFF0C0EE926000EEA22E9CF0BF0EACFA9
:100FB0000CF00BC0E6FF0CC0E6FF51EC0EF0E55262
:100FC000E552FC0EDBCFE9FFFD0EDBCFEAFF020EA0
:100FD000E926000EEA22060EE926000EEA22FC0EA1
:100FE000DBCFEEFFFD0EDBCFEDFFF90EDB500B6E1E
:100FF0000C6A040ED8800B56000E0C56FC0EDBCF8C
:10100000E9FFFD0EDBCFEAFF0C0EE926000EEA2217
:101010000BC0EEFF0CC0EDFFFC0EDBCFE9FFFD0EB9
:10102000DBCFEAFF0C0EE926000EEA22060EE926C7
:10103000000EEA22FC0EDBCFEEFFFD0EDBCFEDFF54
:10104000E552E5CFDAFFE7CFD9FF1200D9CFE6FFAF
:10105000DACFE6FFE1CFD9FFE2CFDAFFE652DF6A6F
:10106000040EDF5C14E2DF50090DF3CF0BF0F4CF78
:101070000CF0800E0B26050E0C220BC0E6FF0CC0F8
:10108000E6FFD7EC0DF0E552E552DF2AE9D7A40ED2
:10109000E66E050EE66ED7EC0DF0E552E552AD0EAC
:1010A000E66E050EE66ED7EC0DF0E552E552BA0E8F
:1010B000E66E050EE66ED7EC0DF0E552E552050141
:1010C000A40EB66F050EB76FAD0EB86F050EB96FF3
:1010D000E552E552E5CFDAFFE7CFD9FF1200120063
:1010E000D9CFE6FFDACFE6FFE1CFD9FFE2CFDAFFD3
:1010F000E652E6521F0EE66EE66A06EC11F0E55285
:10110000E552F3CFDEFFF4CFDDFFD9CFE9FFDACF31
:10111000EAFFEE50ED105EE0D950FA0FE96EFF0ED7
:10112000DA20EA6EEE50ED100FE1FC0EDBCFE6FFA9
:10113000FD0EDBCFE6FF06EC11F0E552E552F3CFF2
:101140000BF0F4CF0CF006D0FA0EDBCF0BF0FB0E59
:10115000DBCF0CF0DECFE9FFDDCFEAFF170EE9268B
:10116000000EEA220BC0EEFF0CC0EDFFDECFE9FF60
:10117000DDCFEAFF170EE926000EEA22EE50ED1051
:101180000BE1DECFE6FFDDCFE6FF5EEC11F0E552CE
:10119000E552DE6ADD6A1ED0FC0EDBCFE6FFFD0EF7
:1011A000DBCFE6FFA50EE66EDECFE9FFDDCFEAFF7F
:1011B000170EE926000EEA22EECFE6FFEFCFE6FF9C
:1011C000CEEC11F00B6E050EE15C02E2E16AE55235
:1011D000E16E0B50DECF0BF0DDCF0CF00BC0F3FF58
:1011E0000CC0F4FF00D0E552E552E552E5CFDAFF3E
:0611F000E7CFD9FF120059
:0A11F600D9CFE6FFDACFE6FFE1CF24
:10120000D9FFE2CFDAFFE652E652E652E652E65264
:10121000FC0EDBCFE9FFFD0EDBCFEAFF110EEF6E18
:10122000FC0EDB2AFD0E01E3DB2AFC0EDBCFE9FF1F
:10123000FD0EDBCFEAFF220EEF6EFC0EDB2AFD0E69
:1012400001E3DB2AFC0EDBCFE9FFFD0EDBCFEAFF7B
:10125000330EEF6EFC0EDB2AFD0E01E3DB2AF70EE8
:10126000DBCF0BF0F80EDBCF0CF0000E0BC0DFFF76
:10127000010E0CC0DBFF020EDB6A030EDB6AD9CF66
:10128000E9FFDACFEAFFEECF0BF0EECF0CF0EECFB6
:101290000DF0EFCF0EF00B50E66EFC0EDBCFE9FF4A
:1012A000FD0EDBCFEAFFE552E750EF6EFC0EDB2AC6
:1012B000FD0E01E3DB2AD9CFE9FFDACFEAFF080E02
:1012C000E76ED890030EEB32020EEB32010EEB32DA
:1012D000EF32E706F6E1D9CFE9FFDACFEAFFEECF4A
:1012E0000BF0EECF0CF0EECF0DF0EFCF0EF00B5079
:1012F000E66EFC0EDBCFE9FFFD0EDBCFEAFFE55229
:10130000E750EF6EFC0EDB2AFD0E01E3DB2AFC0E3C
:10131000DBCFE9FFFD0EDBCFEAFF440EEF6EFC0EE4
:10132000DB2AFD0E01E3DB2AFC0EDBCFE9FFFD0E1D
:10133000DBCFEAFF660EEF6EFC0EDB2AFD0E01E34B
:10134000DB2AFC0EDBCFE9FFFD0EDBCFEAFFCC0E84
:10135000EF6EFC0EDB2AFD0E01E3DB2AFC0EDBCF79
:10136000E9FFFD0EDBCFEAFFC00EEF6EFC0EDB2ABD
:10137000FD0E01E3DB2AFC0EDBCFE9FFFD0EDBCF28
:10138000EAFF110EEF6EFC0EDB2AFD0E01E3DB2AF5
:10139000FC0EDBCFE9FFFD0EDBCFEAFF220EEF6E86
:1013A000FC0EDB2AFD0E01E3DB2AFC0EDBCFE9FF9E
:1013B000FD0EDBCFEAFF330EEF6EFC0EDB2AFD0ED7
:1013C00001E3DB2AFC0EDBCFE9FFFD0EDBCFEAFFFA
:1013D000440EEF6EFC0EDB2AFD0E01E3DB2AFC0E51
:1013E000DBCFE9FFFD0EDBCFEAFF550EEF6EFC0E03
:1013F000DB2AFD0E01E3DB2AFC0EDBCFE9FFFD0E4D
:10140000DBCFEAFF660EEF6EFC0EDB2AFD0E01E37A
:10141000DB2AFC0EDBCFE9FFFD0EDBCFEAFFEF6A34
:10142000FC0EDB2AFD0E01E3DB2AFC0EDBCFE9FF1D
:10143000FD0EDBCFEAFF880EEF6EFC0EDB2AFD0E01
:1014400001E3DB2AFC0EDBCFE9FFFD0EDBCFEAFF79
:10145000990EEF6EFC0EDB2AFD0E01E3DB2AFC0E7B
:10146000DBCFE9FFFD0EDBCFEAFFAA0EEF6EFC0E2D
:10147000DB2AFD0E01E3DB2AFC0EDBCFE9FFFD0ECC
:10148000DBCFEAFFBB0EEF6EFC0EDB2AFD0E01E3A5
:10149000DB2AFC0EDBCFE9FFFD0EDBCFEAFFEF6AB4
:1014A000FC0EDB2AFD0E01E3DB2AFC0EDBCFE9FF9D
:1014B000FD0EDBCFEAFFEF6AFC0EDB2AFD0E01E337
:1014C000DB2A040EDB6ADB50130815E3FC0EDBCFCE
:1014D000E9FFFD0EDBCFEAFF040EDBCFEFFFFC0ED2
:1014E000DBCFE9FFDB2AFD0EDBCFEAFF01E3DB2ADE
:1014F000040EDB2AE8D7FC0EDBCFE9FFFD0EDBCFC5
:10150000EAFF130EEF6EFC0EDB2AFD0E01E3DB2A71
:10151000FC0EDBCFE9FFFD0EDBCFEAFFEF6AFC0E2E
:10152000DB2AFD0E01E3DB2AF90EDBCF0BF0FA0E0E
:10153000DBCF0CF0FB0EDBCF0DF00E6A0BC0DFFF34
:10154000010E0CC0DBFF020E0DC0DBFF030E0EC050
:10155000DBFFD9CFE9FFDACFEAFFEECF0BF0EECF1A
:101560000CF0EECF0DF0EFCF0EF00B50E66EFC0E50
:10157000DBCFE9FFFD0EDBCFEAFFE552E750EF6E70
:10158000FC0EDB2AFD0E01E3DB2AD9CFE9FFDACF1F
:10159000EAFF080EE76ED890030EEB32020EEB3234
:1015A000010EEB32EF32E706F6E1D9CFE9FFDACFF1
:1015B000EAFFEECF0BF0EECF0CF0EECF0DF0EFCF59
:1015C0000EF00B50E66EFC0EDBCFE9FFFD0EDBCF1D
:1015D000EAFFE552E750EF6EFC0EDB2AFD0E01E359
:1015E000DB2AD9CFE9FFDACFEAFF080EE76ED89001
:1015F000030EEB32020EEB32010EEB32EF32E70656
:10160000F6E1D9CFE9FFDACFEAFFEECF0BF0EECF6C
:101610000CF0EECF0DF0EFCF0EF00B50E66EFC0E9F
:10162000DBCFE9FFFD0EDBCFEAFFE552E750EF6EBF
:10163000FC0EDB2AFD0E01E3DB2AFC0EDBCFE9FF0B
:10164000FD0EDBCFEAFF010EEF6EFC0EDB2AFD0E76
:1016500001E3DB2AFC0EDBCF0BF0FD0EDBCF0CF041
:101660000BC0F3FF0CC0F4FF050EE15C03E200D0F9
:10167000E16AE552E16EE552E5CFDAFFE7CFD9FF47
:10168000120028DAC3C5E9FFC4C5EAFFEECFE1FFC7
:10169000EECFE2FFE5CFE9FFE5CFE9FFFC6AE950D5
:1016A000FC5C08E20500E550FF6EE550FE6EE5507B
:1016B000FD6EF5D7E5CFEAFFE5CFE9FFE5CFEDFF1A
:1016C000E5CFEDFFE5CFEDFFE5CFEDFFE5CFEDFF9A
:1016D000E5CFEDFFE5CFEDFFE5CFEDFFE5CFEDFF8A
:1016E000E5CFEDFFE5CFEDFFE5CFEDFFE5CFEDFF7A
:1016F000E5CFEDFFE5CFEDFFE5CFEDFFE5CFEDFF6A
:10170000E5CFEDFFE5CFEDFFE5CFEFFFE5CFFAFF4A
:10171000E5CFFBFFE5CFF3FFE5CFF4FFE5CFF6FF25
:10172000E5CFF7FFE5CFF8FFE5CFF5FFE5CFEAFF1F
:10173000E5CFE9FFE5CFDAFFE5CFD9FFE5CFE0FF61
:10174000E5CFE8FFE8AE06D0E5CFD8FFE5CFE8FF6C
:10175000100005D0E5CFD8FFE5CFE8FF1200010E5D
:1017600000D012001200E8CFE4FFD8CFE4FFF2CFA0
:10177000E8FF0009E8CFE4FFF29EE0CFE4FFD9CF15
:10178000E4FFDACFE4FFE9CFE4FFEACFE4FFF5CFEF
:10179000E4FFF8CFE4FFF7CFE4FFF6CFE4FFF4CFA8
:1017A000E4FFF3CFE4FFFBCFE4FFFACFE4FFE96A05
:1017B000EA6AEECFE4FFEECFE4FFEECFE4FFEECF38
:1017C000E4FFEECFE4FFEECFE4FFEECFE4FFEECF99
:1017D000E4FFEECFE4FFEECFE4FFEECFE4FFEECF89
:1017E000E4FFEECFE4FFEECFE4FFEECFE4FFEECF79
:1017F000E4FFEECFE4FFEECFE4FFEECFE4FFEFCF68
:10180000E4FFE9CFE4FFEACFE4FFFCCFE9FFFC50BF
:10181000000808E2FDCFE4FFFECFE4FFFFCFE4FFC6
:101820000600F5D7E9CFE4FFE452C3C5E9FFC4C51C
:10183000EAFFE1CFEEFFE2CFEEFF97EC04F0C3C585
:10184000E9FFC4C5EAFFEECFE1FFEECFE2FFE5CF4F
:10185000E9FFE5CFE9FFFC6AE950FC5C08E205001E
:10186000E550FF6EE550FE6EE550FD6EF5D7E5CF15
:10187000EAFFE5CFE9FFE5CFEDFFE5CFEDFFE5CFEF
:10188000EDFFE5CFEDFFE5CFEDFFE5CFEDFFE5CFD8
:10189000EDFFE5CFEDFFE5CFEDFFE5CFEDFFE5CFC8
:1018A000EDFFE5CFEDFFE5CFEDFFE5CFEDFFE5CFB8
:1018B000EDFFE5CFEDFFE5CFEDFFE5CFEDFFE5CFA8
:1018C000EDFFE5CFEFFFE5CFFAFFE5CFFBFFE5CF7B
:1018D000F3FFE5CFF4FFE5CFF6FFE5CFF7FFE5CF68
:1018E000F8FFE5CFF5FFE5CFEAFFE5CFE9FFE5CF6C
:1018F000DAFFE5CFD9FFE5CFE0FFE5CFE8FFE8AEBF
:1019000006D0E5CFD8FFE5CFE8FF100005D0E5CF42
:10191000D8FFE5CFE8FF12001200E8CFE4FFD8CFF0
:10192000E4FFF2CFE8FF8009E8CFE4FFF29EE0CFCA
:10193000E4FFD9CFE4FFDACFE4FFE9CFE4FFEACF59
:10194000E4FFF5CFE4FFF8CFE4FFF7CFE4FFF6CFF5
:10195000E4FFF4CFE4FFF3CFE4FFFBCFE4FFFACFE3
:10196000E4FFE96AEA6AEECFE4FFEECFE4FFEECFF0
:10197000E4FFEECFE4FFEECFE4FFEECFE4FFEECFE7
:10198000E4FFEECFE4FFEECFE4FFEECFE4FFEECFD7
:10199000E4FFEECFE4FFEECFE4FFEECFE4FFEECFC7
:1019A000E4FFEECFE4FFEECFE4FFEECFE4FFEECFB7
:1019B000E4FFEFCFE4FFE9CFE4FFEACFE4FFFCCFA1
:1019C000E9FFFC50000808E2FDCFE4FFFECFE4FF92
:1019D000FFCFE4FF0600F5D7E9CFE4FFE452C3C52B
:1019E000E9FFC4C5EAFFE1CFEEFFE2CFEEFF9E9430
:1019F0009AEC03F097EC04F0C3C5E9FFC4C5EAFF15
:101A0000EECFE1FFEECFE2FFE5CFE9FFE5CFE9FF63
:101A1000FC6AE950FC5C08E20500E550FF6EE55009
:101A2000FE6EE550FD6EF5D7E5CFEAFFE5CFE9FFA5
:101A3000E5CFEDFFE5CFEDFFE5CFEDFFE5CFEDFF26
:101A4000E5CFEDFFE5CFEDFFE5CFEDFFE5CFEDFF16
:101A5000E5CFEDFFE5CFEDFFE5CFEDFFE5CFEDFF06
:101A6000E5CFEDFFE5CFEDFFE5CFEDFFE5CFEDFFF6
:101A7000E5CFEDFFE5CFEDFFE5CFEDFFE5CFEFFFE4
:101A8000E5CFFAFFE5CFFBFFE5CFF3FFE5CFF4FFAE
:101A9000E5CFF6FFE5CFF7FFE5CFF8FFE5CFF5FFA0
:101AA000E5CFEAFFE5CFE9FFE5CFDAFFE5CFD9FFE4
:101AB000E5CFE0FFE5CFE8FFE8AE06D0E5CFD8FF01
:101AC000E5CFE8FF100005D0E5CFD8FFE5CFE8FF70
:101AD00012001200D9CFE6FFDACFE6FFE1CFD9FF3F
:101AE000E2CFDAFF090EE12402E3E168E652E16E9B
:101AF000E00EDE6E2E0EDE6EDE6ADD6ADD52DD5237
:101B0000CF6ACE6AD9CFE9FFDACFEAFF040EEECF73
:101B1000DBFF050EEECFDBFF060EEECFDBFF070E81
:101B2000EECFDBFF040EDBCF0BF0050EDBCF0CF0AE
:101B3000060EDBCF0DF0070EDBCF0EF00B50BE6EA6
:101B4000D950040FE96E000EDA20EA6E080EE76E37
:101B5000D890030EEB32020EEB32010EEB32EF3275
:101B6000E706F6E1040EDBCF0BF0050EDBCF0CF041
:101B7000060EDBCF0DF0070EDBCF0EF00B50BF6E65
:101B8000BD80BD82BD94BD869D84F28C8D0EE66EB7
:101B900016EC12F0E552090EE15C02E2E16AE55250
:0E1BA000E16EE552E5CFDAFFE7CFD9FF120084
:021BAE00D9CF8D
:101BB000E6FFDACFE6FFE1CFD9FFE2CFDAFFFC0E96
:101BC000DBCFE9FFFD0EDBCFEAFF030EE926000EB7
:101BD000EA22E9CF0BF0EACF0CF0FC0EDBCFE9FFF5
:101BE000FD0EDBCFEAFFEE520BC0EEFF0CC0EDFFA7
:101BF000FC0EDBCFE9FFFD0EDBCFEAFF030EE9268B
:101C0000000EEA22EE68ED68FC0EDBCFE9FFFD0E68
:101C1000DBCFEAFF030EE926000EEA22E9CF0BF044
:101C2000EACF0CF0FC0EDBCFE9FFFD0EDBCFEAFFC5
:101C3000030EE926000EEA22020EE926000EEA2231
:101C40000BC0EEFF0CC0EDFFFC0EDBCFE9FFFD0E7D
:101C5000DBCFEAFF030EE926000EEA22E9CF0BF004
:101C6000EACF0CF0FC0EDBCFE9FFFD0EDBCFEAFF85
:101C7000030EE926000EEA22040EE926000EEA22EF
:101C80000BC0EEFF0CC0EDFFFC0EDBCFE9FFFD0E3D
:101C9000DBCFEAFFEF6AE552E5CFDAFFE7CFD9FF06
:101CA0001200D9CFE6FFDACFE6FFE1CFD9FFE2CFCE
:101CB000DAFFFC0EDBCFE9FFFD0EDBCFEAFF080EFB
:101CC000EB6A090EEB6AE552E5CFDAFFE7CFD9FF01
:101CD0001200D9CFE6FFDACFE6FFE1CFD9FFE2CF9E
:101CE000DAFFE652E652FC0EDBCFE9FFFD0EDBCF5A
:101CF000EAFFEE52EECFDEFFEDCFDDFFDECFE9FFF4
:101D0000DDCFEAFF020EE926000EEA22EECF0BF04D
:101D1000EFCF0CF0FA0EDBCFE9FFFB0EDBCFEAFFD3
:101D2000020EE926000EEA220BC0EEFF0CC0EDFF0A
:101D3000FC0EDBCFE9FFFD0EDBCFEAFFEE52EECF6C
:101D40000BF0EFCF0CF0FA0EDBCFE9FFFB0EDBCF91
:101D5000EAFF040EE926000EEA220BC0EEFF0CC0DB
:101D6000EDFFDECFE9FFDDCFEAFF020EE926000E30
:101D7000EA22EE50EFCFEAFFE96E040EE926000EEC
:101D8000EA22FA0EDBCFEEFFFB0EDBCFEDFFDECF5C
:101D9000E9FFDDCFEAFF020EE926000EEA22FA0E85
:101DA000DBCFEEFFFB0EDBCFEDFFFC0EDBCFE9FF61
:101DB000FD0EDBCFEAFFEE52FA0EDBCFEEFFFB0E9D
:101DC000DBCFEDFFFA0EDBCFE9FFFB0EDBCFEAFF47
:101DD000080EE926000EEA22FC0EDBCFEEFFFD0E18
:101DE000DBCFEDFFFC0EDBCFE9FFFD0EDBCFEAFF23
:101DF000EF2AE552E552E552E5CFDAFFE7CFD9FF0A
:101E00001200D9CFE6FFDACFE6FFE1CFD9FFE2CF6C
:101E1000DAFFE652E652E652E652FA0EDBCFE9FF6F
:101E2000FB0EDBCFEAFF020EEECFDBFF030EEDCFA2
:101E3000DBFFD950020FE96E000EDA20EA6EFF0ECA
:101E4000EE1802E1FF0EED1813E1FC0EDBCFE9FF07
:101E5000FD0EDBCFEAFF030EE926000EEA22040E98
:101E6000E926000EEA22EECFDEFFEDCFDDFF3AD00D
:101E7000FC0EDBCFE9FFFD0EDBCFEAFF030EE92608
:101E8000000EEA22E9CF0BF0EACF0CF00BC0DEFF28
:101E90000CC0DDFFDECFE9FFDDCFEAFF020EE92651
:101EA000000EEA22EE50EFCFEAFFE96EEECF0BF024
:101EB000EFCF0CF0020EDBCF0DF0030EDBCF0EF0F8
:101EC0000B500D5C0C500E580DE3DECFE9FFDDCF5B
:101ED000EAFF020EE926000EEA22EECFDEFFEDCF8A
:101EE000DDFFD8D7DECFE9FFDDCFEAFF020EE9261E
:101EF000000EEA22EECF0BF0EFCF0CF0FA0EDBCFA4
:101F0000E9FFFB0EDBCFEAFF020EE926000EEA2214
:101F10000BC0EEFF0CC0EDFFFA0EDBCFE9FFFB0EAE
:101F2000DBCFEAFF020EE926000EEA22EE50EFCFE9
:101F3000EAFFE96E040EE926000EEA22FA0EDBCF74
:101F4000EEFFFB0EDBCFEDFFFA0EDBCFE9FFFB0E62
:101F5000DBCFEAFF040EE926000EEA22DECFEEFF19
:101F6000DDCFEDFFDECFE9FFDDCFEAFF020EE92690
:101F7000000EEA22FA0EDBCFEEFFFB0EDBCFEDFF09
:101F8000FA0EDBCFE9FFFB0EDBCFEAFF080EE926F6
:101F9000000EEA22FC0EDBCFEEFFFD0EDBCFEDFFE5
:101FA000FC0EDBCFE9FFFD0EDBCFEAFFEF2A040ECC
:101FB000E15C02E2E16AE552E16EE552E5CFDAFF6B
:101FC000E7CFD9FF1200D9CFE6FFDACFE6FFE1CFA6
:101FD000D9FFE2CFDAFFE652E652FC0EDBCFE9FF93
:101FE000FD0EDBCFEAFF040EE926000EEA22EECF5B
:101FF0000BF0EFCF0CF0FC0EDBCFE9FFFD0EDBCFDB
:10200000EAFF020EE926000EEA22EE50EFCFEAFFC9
:10201000E96E040EE926000EEA220BC0EEFF0CC0AA
:10202000EDFFFC0EDBCFE9FFFD0EDBCFEAFF020E7A
:10203000E926000EEA22EECF0BF0EFCF0CF0FC0EFB
:10204000DBCFE9FFFD0EDBCFEAFF040EE926000E31
:10205000EA22EE50EFCFEAFFE96E020EE926000E0B
:10206000EA220BC0EEFF0CC0EDFFFC0EDBCFE9FF58
:10207000FD0EDBCFEAFF080EE926000EEA22EECFC6
:10208000DEFFEDCFDDFFDECFE9FFDDCFEAFFEE5271
:10209000EECF0BF0EFCF0CF0FC0EDB500B1803E192
:1020A000FD0EDB500C1817E1FC0EDBCFE9FFFD0E37
:1020B000DBCFEAFF040EE926000EEA22EECF0BF09A
:1020C000EFCF0CF0DECFE9FFDDCFEAFFEE520BC021
:1020D000EEFF0CC0EDFFFC0EDBCFE9FFFD0EDBCF0A
:1020E000EAFF080EEB6A090EEB6ADECFE9FFDDCFEF
:1020F000EAFFEF06E552E552E552E5CFDAFFE7CF1A
:04210000D9FF1200F1
:0C210400936A6CEC11F0000EE66EE66AC7
:10211000E66EE66AE66EE66A010EE66E000EE66EB2
:10212000E66A690EE66EE66A9B0EE66E240EE66EC1
:102130009A0EE66E210EE66E000EE66E16EC00F0CC
:102140000B6E100EE15C02E2E16AE552E16E0B50AB
:10215000000EE66EE66AE66EE66AE66EE66A010E76
:10216000E66E000EE66EE66A690EE66EE66A980EA8
:10217000E66E240EE66ED20EE66E210EE66E000EC0
:10218000E66E16EC00F00B6E100EE15C02E2E16A06
:10219000E552E16E0B503AEF02F0D9CFE6FFDACF0D
:1021A000E6FFE1CFD9FFE2CFDAFF8150010B02E079
:1021B0008A9001D08A80FA0EE66EE66A9EEC01F003
:1021C000E552E552F2D7E552E5CFDAFFE7CFD9FF86
:1021D0001200D9CFE6FFDACFE6FFE1CFD9FFE2CF99
:1021E000DAFF8150020B02E08A9201D08A825E0EF1
:1021F000E66E010EE66E9EEC01F0E552E552F1D777
:0C220000E552E5CFDAFFE7CFD9FF12006E
:04220C00D9CFE6FF41
:10221000DACFE6FFE1CFD9FFE2CFDAFFE652E652AE
:10222000DE6ADD6A7DEC02F0FC0EDB500501DA258A
:1022300000010B6EFD0EDB500501DB2100010C6E71
:10224000000E0B5C040E0C5826E2FC0EDB50050160
:10225000DA2500010D6EFD0EDB500501DB210001CA
:102260000E6E05010D50DA5D0E50DB5914E2800E42
:10227000DA250B6E010EDB210C6E0BC0DEFF0CC0ED
:10228000DDFFFC0EDBCF06F0FD0EDBCF07F00650C6
:10229000DA270750DB2380EC02F0DECF0BF0DDCF36
:1022A0000CF00BC0F3FF0CC0F4FF00D0E552E55278
:1022B000E552E5CFDAFFE7CFD9FF1200D9CFE6FF2D
:1022C000DACFE6FFE1CFD9FFE2CFDAFFE552E5CF83
:1022D000DAFFE7CFD9FF12000501DA6BDB6B1200E2
:1022E000DAC50BF0DBC50CF0000ED8800B56040EDF
:0E22F0000C560BC0F3FF0CC0F4FF00D0120020
:0222FE00120EBE
:10230000F66E000EF76E000EF86E05010900F5502E
:10231000D56F0900F550D66F03E1D56701D03DD0E8
:102320000900F550D06F0900F550D16F0900F55044
:10233000D26F09000900F550E96E0900F550EA6E08
:10234000090009000900F550D36F0900F550D46F5A
:1023500009000900F6CFD7F5F7CFD8F5F8CFD9F5B2
:10236000D0C5F6FFD1C5F7FFD2C5F8FF0501D3539D
:1023700002E1D45307E00900F550EE6ED307F8E20E
:10238000D407F9D7D7C5F6FFD8C5F7FFD9C5F8FFE9
:0C2390000501D507000ED65BBFD7120078
:04239C00FE0EE3CF7F
:1023A000E9FFFF0EE3CFEAFFE9CFF3FFEACFF4FF47
:1023B000FB0EE35003E1FC0EE35009E0FB0EE306E5
:1023C00002E2FC0EE306FD0EE350EE6EF1D71200C2
:1023D000D9CFE6FFDACFE6FFFA0EE3CFD9FFFB0E47
:1023E000E3CFDAFFFC0EE3CFE9FFFD0EE3CFEAFF18
:1023F000E9CFF3FFEACFF4FFF80EE35003E1F90E63
:10240000E3500BE0F80EE30602E2F90EE306DECF3E
:10241000EFFFEE66F1D7DD52EFD7FF0EE3CFDAFF25
:0C242000E552FF0EE3CFD9FFE552120099
:04242C00D9CFE6FF1F
:10243000DACFE6FFE1CFD9FFE2CFDAFFFD0EDB50C6
:102440007E0BCD6EFD0EDBAC02D0CD8E01D0CD9ECD
:10245000CF6ACE6A9E90DBAE02D09D8001D09D9067
:0E246000CD80E552E5CFDAFFE7CFD9FF1200BD
:02246E0010EE6E
:1024700080F020EE80F0F86A0A9C7FEC11F003EC0B
:0A24800000F082EC10F0FBD7120010
:06248A0000EE00F00F0E51
:08249000EE6AEA62FDD71200BA
:082498005431005430004944A6
:0324A0004C4500A8
:0D24A300000000000000000000000000002C
:0224B00000002A
:020000040030CA
:0100010006F8
:0100020018E5
:010003001EDE
:010005008179
:010006008178
:00000001FF
